{
  "_format": "hh-sol-artifact-1",
  "contractName": "Token",
  "sourceName": "contracts/token.sol",
  "abi": [
    {
      "inputs": [],
      "stateMutability": "nonpayable",
      "type": "constructor"
    },
    {
      "inputs": [
        {
          "internalType": "address",
          "name": "account",
          "type": "address"
        }
      ],
      "name": "balanceof",
      "outputs": [
        {
          "internalType": "uint256",
          "name": "",
          "type": "uint256"
        }
      ],
      "stateMutability": "view",
      "type": "function"
    },
    {
      "inputs": [],
      "name": "name",
      "outputs": [
        {
          "internalType": "string",
          "name": "",
          "type": "string"
        }
      ],
      "stateMutability": "view",
      "type": "function"
    },
    {
      "inputs": [],
      "name": "owner",
      "outputs": [
        {
          "internalType": "address",
          "name": "",
          "type": "address"
        }
      ],
      "stateMutability": "view",
      "type": "function"
    },
    {
      "inputs": [],
      "name": "symbol",
      "outputs": [
        {
          "internalType": "string",
          "name": "",
          "type": "string"
        }
      ],
      "stateMutability": "view",
      "type": "function"
    },
    {
      "inputs": [],
      "name": "totalsupply",
      "outputs": [
        {
          "internalType": "uint256",
          "name": "",
          "type": "uint256"
        }
      ],
      "stateMutability": "view",
      "type": "function"
    },
    {
      "inputs": [
        {
          "internalType": "address",
          "name": "to",
          "type": "address"
        },
        {
          "internalType": "uint256",
          "name": "amount",
          "type": "uint256"
        }
      ],
      "name": "transfer",
      "outputs": [],
      "stateMutability": "nonpayable",
      "type": "function"
    }
  ],
  "bytecode": "0x60806040526040518060400160405280600981526020017f4e616761546f6b656e00000000000000000000000000000000000000000000008152506000908051906020019061004f92919061013c565b506040518060400160405280600381526020017f4e4e5400000000000000000000000000000000000000000000000000000000008152506001908051906020019061009b92919061013c565b50620186a06002553480156100af57600080fd5b50600254600460003373ffffffffffffffffffffffffffffffffffffffff1673ffffffffffffffffffffffffffffffffffffffff1681526020019081526020016000208190555033600360006101000a81548173ffffffffffffffffffffffffffffffffffffffff021916908373ffffffffffffffffffffffffffffffffffffffff160217905550610240565b8280546101489061020e565b90600052602060002090601f01602090048101928261016a57600085556101b1565b82601f1061018357805160ff19168380011785556101b1565b828001600101855582156101b1579182015b828111156101b0578251825591602001919060010190610195565b5b5090506101be91906101c2565b5090565b5b808211156101db5760008160009055506001016101c3565b5090565b7f4e487b7100000000000000000000000000000000000000000000000000000000600052602260045260246000fd5b6000600282049050600182168061022657607f821691505b6020821081141561023a576102396101df565b5b50919050565b6107bf8061024f6000396000f3fe608060405234801561001057600080fd5b50600436106100625760003560e01c806306fdde03146100675780633d64125b1461008557806372dd529b146100b55780638da5cb5b146100d357806395d89b41146100f1578063a9059cbb1461010f575b600080fd5b61006f61012b565b60405161007c9190610487565b60405180910390f35b61009f600480360381019061009a919061050c565b6101b9565b6040516100ac9190610552565b60405180910390f35b6100bd610202565b6040516100ca9190610552565b60405180910390f35b6100db610208565b6040516100e8919061057c565b60405180910390f35b6100f961022e565b6040516101069190610487565b60405180910390f35b610129600480360381019061012491906105c3565b6102bc565b005b6000805461013890610632565b80601f016020809104026020016040519081016040528092919081815260200182805461016490610632565b80156101b15780601f10610186576101008083540402835291602001916101b1565b820191906000526020600020905b81548152906001019060200180831161019457829003601f168201915b505050505081565b6000600460008373ffffffffffffffffffffffffffffffffffffffff1673ffffffffffffffffffffffffffffffffffffffff168152602001908152602001600020549050919050565b60025481565b600360009054906101000a900473ffffffffffffffffffffffffffffffffffffffff1681565b6001805461023b90610632565b80601f016020809104026020016040519081016040528092919081815260200182805461026790610632565b80156102b45780601f10610289576101008083540402835291602001916102b4565b820191906000526020600020905b81548152906001019060200180831161029757829003601f168201915b505050505081565b80600460003373ffffffffffffffffffffffffffffffffffffffff1673ffffffffffffffffffffffffffffffffffffffff16815260200190815260200160002054111561033e576040517f08c379a0000000000000000000000000000000000000000000000000000000008152600401610335906106b0565b60405180910390fd5b80600460003373ffffffffffffffffffffffffffffffffffffffff1673ffffffffffffffffffffffffffffffffffffffff168152602001908152602001600020600082825461038d91906106ff565b9250508190555080600460008473ffffffffffffffffffffffffffffffffffffffff1673ffffffffffffffffffffffffffffffffffffffff16815260200190815260200160002060008282546103e39190610733565b925050819055505050565b600081519050919050565b600082825260208201905092915050565b60005b8381101561042857808201518184015260208101905061040d565b83811115610437576000848401525b50505050565b6000601f19601f8301169050919050565b6000610459826103ee565b61046381856103f9565b935061047381856020860161040a565b61047c8161043d565b840191505092915050565b600060208201905081810360008301526104a1818461044e565b905092915050565b600080fd5b600073ffffffffffffffffffffffffffffffffffffffff82169050919050565b60006104d9826104ae565b9050919050565b6104e9816104ce565b81146104f457600080fd5b50565b600081359050610506816104e0565b92915050565b600060208284031215610522576105216104a9565b5b6000610530848285016104f7565b91505092915050565b6000819050919050565b61054c81610539565b82525050565b60006020820190506105676000830184610543565b92915050565b610576816104ce565b82525050565b6000602082019050610591600083018461056d565b92915050565b6105a081610539565b81146105ab57600080fd5b50565b6000813590506105bd81610597565b92915050565b600080604083850312156105da576105d96104a9565b5b60006105e8858286016104f7565b92505060206105f9858286016105ae565b9150509250929050565b7f4e487b7100000000000000000000000000000000000000000000000000000000600052602260045260246000fd5b6000600282049050600182168061064a57607f821691505b6020821081141561065e5761065d610603565b5b50919050565b7f6e6f7420656e6f7567687420746f6b656e730000000000000000000000000000600082015250565b600061069a6012836103f9565b91506106a582610664565b602082019050919050565b600060208201905081810360008301526106c98161068d565b9050919050565b7f4e487b7100000000000000000000000000000000000000000000000000000000600052601160045260246000fd5b600061070a82610539565b915061071583610539565b925082821015610728576107276106d0565b5b828203905092915050565b600061073e82610539565b915061074983610539565b9250827fffffffffffffffffffffffffffffffffffffffffffffffffffffffffffffffff0382111561077e5761077d6106d0565b5b82820190509291505056fea2646970667358221220c7b5f3c9a12343a5dcf7e264fe5bbe3fedbaa6a44c651f9e0b73bddb61abe92c64736f6c63430008090033",
  "linkReferences": {},
  "deployedLinkReferences": {}
}